:020000040800F2
:1000000088100020F10100082F6E00086D600008C4
:100010002D6E0008250C0008F57C0008000000008B
:10002000000000000000000000000000AD700008AB
:10003000270C000800000000C96E00088174000849
:100040000B0200080B0200080B0200080B0200085C
:100050000B0200080B0200080B0200080B0200084C
:100060000B0200080B0200080B0200080B0200083C
:100070000B0200080B0200080B0200080B0200082C
:100080000B0200080B0200080B0200080B0200081C
:100090000B0200080B0200080B0200080B0200080C
:1000A0000B0200080B0200080B0200080B020008FC
:1000B000B57500080B0200080B0200080B020008CF
:1000C0000B0200080B0200080B0200080B020008DC
:1000D0000B0200080B0200080B0200080B020008CC
:1000E0000B0200080B0200080B0200080B020008BC
:1000F0000B0200080B0200080B0200080B020008AC
:100100000B0200080B0200080B0200080B0200089B
:100110000B0200080B0200080B0200080B0200088B
:100120000B0200080B0200080B0200080B0200087B
:100130000B0200080B0200080B0200080B0200086B
:100140000B0200080B0200080B0200081D5D0008EE
:100150000B0200080B0200080B0200080B0200084B
:100160000B0200080B0200080B0200080B0200083B
:100170000B0200080B0200080B0200080B0200082B
:100180000B0200080B0200080B0200080B0200081B
:100190000B02000800000000710C00080B020008B0
:1001A0000B0200080B0200080B0200080B020008FB
:1001B0000B0200080B0200080B0200080B020008EB
:1001C0000B0200080B0200080B0200080B020008DB
:1001D0000B0200080B020008DFF810D000F020FB33
:1001E000004800475D990008AFF3008088100020A8
:1001F0000648804706480047FEE7FEE7FEE7FEE7C1
:10020000FEE7FEE7FEE7FEE7FEE7FEE7797500089A
:10021000D90100082DE9F05F0546002092469B4673
:1002200088460646814640241BE02846414647460C
:10023000224600F09FF953465A46C01A914110D306
:1002400011461846224600F086F92D1A67EB010880
:100250004F4622460120002100F07DF917EB0009EE
:100260004E41201EA4F10104DFDC484631462A46F7
:100270004346BDE8F09FD2B201E000F8012B491ED1
:10028000FBD270470022F6E710B513460A46044633
:100290001946FFF7F0FF204610BD2DE9FE4F8046BE
:1002A00081EA0300C00F0C46009021F0004123F0CA
:1002B0000045B8EB0200A94105D2404621469046D0
:1002C0001C460B46024623F00040104347D0270D42
:1002D000C7F30A00C3F30A510290401A0190402864
:1002E0006BDAC3F3130040F4801B0098924620B1F0
:1002F0000023D2EB030A63EB0B0B01985946C0F1C4
:100300004002504600F027F906460D465046594631
:10031000019A00F03FF910EB08006141002487EAE0
:10032000115284EAE7731A4340D0009A62B3019AEB
:10033000012A4FEA075215DC001B61EB02014FF066
:10034000004202EA0752CDE90042001C41F580114B
:1003500032462B4600F076F903B0BDE8F08F4046F8
:100360002146F9E7001B61EB0201001C41F58013F7
:1003700000185B412018A2F5001747EB030140EA83
:10038000D570B6196D4111E06D084FEA360645EAA1
:10039000C0754FEA0752001B61EB0201001C41F5DA
:1003A000801149084FEA30000019514132462B466E
:1003B00003B0BDE8F04F00F036B9009801224000CC
:1003C0000023D0EB020263EBE073009821464FEA72
:1003D000E074B8EB000061EB0401E9E783F000434F
:1003E0005BE781F0004158E72DE9FE4F81EA030405
:1003F00004F0004421F0004100944FF0000B23F082
:10040000004350EA01045ED052EA03045BD0C3F318
:100410000A54C1F30A552C44A4F2F3340194A0FB0E
:100420000254C1F3130141F48011C3F3130343F4E5
:10043000801301FB024400FB034E840A970A44EA3E
:10044000815447EA8357A4FB076802958D0A05FB90
:1004500007854FEA932C04FB0C542705029D4FEAB5
:10046000065847EA1637B5EB08056EEB070C870E02
:10047000920E47EA811742EA8312A7FB0201B6EB0C
:100480000B0164EB00042B0D43EA0C335E1844EBC4
:100490001C50DA465146E7FB0201C5F313044FEA4C
:1004A0000B3343EA14534FEA0432019C43EA060338
:1004B000A4F10C040294009CCDE900B400F0C2F851
:1004C00003B0BDE8F08F00200146F9E700F00042DC
:1004D00030F000400AD0C10D01F56071C0F3160084
:1004E00042EA0151C208400711437047002001460B
:1004F000704701F0004330B421F0004150EA01029E
:1005000006D00A0DA2F56072C1F31301002A02DCC5
:1005100030BC00207047440F44EAC104C100E01819
:1005200030BC00EBC25000F047B830B50B46014676
:1005300000202022012409E021FA02F59D4205D382
:1005400003FA02F5491B04FA02F52844151EA2F12C
:100550000102F1DC30BD202A04DB203A00FA02F16E
:10056000002070479140C2F1200320FA03F31943A1
:1005700090407047202A04DB203A21FA02F0002143
:10058000704721FA02F3D040C2F1200291400843A3
:1005900019467047202A06DBCB17203A41FA02F0B1
:1005A00043EAE07306E041FA02F3D040C2F12002D0
:1005B00091400843194670470029A8BF7047401C66
:1005C000490008BF20F00100704710B4B0FA80FC69
:1005D00000FA0CF050EA010404BF10BC704749B1A6
:1005E000CCF1200421FA04F411FA0CF118BF012116
:1005F00021430843A3EB0C01CB1D4FEA00614FEAF6
:10060000102042BF002010BC704700EBC3501044C4
:100610000029A4BF10BC7047401C490008BF20F04F
:10062000010010BC704710B5141E73F1000408DA05
:10063000401C41F1000192185B411A4301D120F0A6
:10064000010010BD2DE9F04D92469B4611B1B1FA63
:1006500081F202E0B0FA80F220329046FFF77BFF91
:1006600004460F4640EA0A0041EA0B0153465A4647
:10067000084313D0114653EA010019D0C8F14002D3
:100680005046FFF777FF05460E465046594642460C
:10069000FFF761FF084305D0012004E020463946FA
:1006A000BDE8F08D0020054346EAE0762C43374351
:1006B0000A986305E40AA0EB08000022FD0A44EA58
:1006C00047540A3002D500200146E9E70105101918
:1006D0006941DDE9084500196941BDE8F04DA2E72F
:1006E0002DE9F04D81EA030404F0004B21F00045B0
:1006F00014464FF0000A23F0004150EA050220D0D2
:1007000054EA01021DD0C5F30A570246C5F313038C
:10071000C1F31300C1F30A5640F4801543F480136B
:10072000A7EB0608101BD64608F2FD3873EB050050
:1007300002D308F1010801E092185B41B8F1000F03
:1007400003DA00200146BDE8F08D00204FF480114F
:10075000064684460EE0171B73EB050705D3121BF4
:1007600063EB050306434CEA010C49084FEA3000ED
:1007700092185B4150EA0107EDD152EA030012D012
:1007800082EA040083EA0501084305D0101BAB414F
:1007900006D20122002306E000224FF0004302E0CF
:1007A0006FF0010253101AEB06004CEB085110EBEE
:1007B0000A0041EB0B01BDE8F04DFFF734BFC1F378
:1007C0000A52C1F3130140F2FF3341F480119A42FF
:1007D00002DA00200146704740F233439A42A2F207
:1007E000334202DC5242FFF7C5BEFFF7B4BE000041
:1007F00030B5041E71F1000404DB4FF000444042A8
:1008000064EB0101141E73F1000405DB1C464FF07C
:100810000043524263EB0403994208BF904230BD4B
:10082000064C074D06E0E06840F0010394E807003D
:1008300098471034AC42F6D3FFF7D2FCC0A20008B0
:1008400000A3000870B58C1810F8015B15F00703C1
:1008500001D110F8013B2A1106D110F8012B03E059
:1008600010F8016B01F8016B5B1EF9D12B0705D461
:100870000023521E0DD401F8013BFAE710F8013BAA
:10088000CB1A921C03E013F8015B01F8015B521EC6
:10089000F9D5A142D8D3002070BD40F2290CC1F295
:1008A000000C604740F2291CC1F2000C604740F286
:1008B000455CC1F2000C604710B5184C7F21184808
:1008C00000F022FB7F21174800F01EFB7F21164815
:1008D00000F01AFB7F21154800F016FB7F21144819
:1008E00000F012FB012221460D4801F035F90122EA
:1008F00010490C4801F030F901220F490A4801F073
:100900002BF901220D49094801F026F9BDE81040F4
:1009100001220B49064801F01FB9000018140240DB
:10092000200200208C020020F80200206403002036
:10093000D0030020E80000200C010020300100203E
:100940005401002010B50146806AC26D12F0500FAC
:1009500006D0C26D12F0100F2FD000F073FE10BD44
:10096000C16D41F40071C16501680A6812F0080F99
:1009700010D0CA6812F4406F04BFC96811F4005F58
:1009800018D1C16D21F48071C165C16D11F4805F12
:1009900010D10BE0C96811F0020F0BD1C16D21F429
:1009A0008071C165C16D11F4805F03D1C16D41F0EB
:1009B0000101C16500F044FE10BD406D426BBDE811
:1009C00010400846104710B5806AC16D41F04001E3
:1009D000C165016E41F00401016600F033FE10BDF7
:1009E00010B5806A00F02DFE10BD000070B5044601
:1009F000006881688268C1F3400112F0010F32D0B3
:100A000089BB816801F00D0101291DD1816821F0A8
:100A10003F0121F0004141F0020181602168032083
:100A2000086002F0E7F805462068806810F0010FC2
:100A300019D000BF02F0DEF8401B02280ED9206852
:100A4000806810F0010F09D0E06D40F01000E06503
:100A5000206E40F001002066012070BD2068806893
:100A600010F0010FE6D1002070BD70B5044600689B
:100A7000816811F0010F2FD181686FF39E1169BB5E
:100A8000816821F03F0121F0004141F001018160C6
:100A900002F0B0F805462068006810F0010F1BD185
:100AA0002068816811F0010F07D1816821F03F01B2
:100AB00021F0004141F00101816002F09BF8401BF0
:100AC000022804D92068006810F0010F06D02068C1
:100AD000006810F0010FE3D0002070BDE06D40F021
:100AE0001000E065206E40F001002066012070BD1E
:100AF00010B504462DED068BB0EE608AF0EE408A0C
:100B0000C0ED010A71EEE00AC0ED021A80ED030AA1
:100B100080ED041AF5EEC00AF1EE10FA1DBF31EEB9
:100B2000681AB5EEC01AF1EE10FABDEC068B08BFDC
:100B300010BD81EE200A10EE100AFFF7C7FC41EC51
:100B4000190B18EE100AFFF7C1FC53EC192BFFF735
:100B50004BFC41EC1A0B18EE900AFFF7B7FC53EC74
:100B60001A2BFFF73BFC41EC180BA069FFF7AEFC1A
:100B700053EC192BFFF738FCFFF7BBFCA06151ECDD
:100B8000180BFFF7B6FC6061BDEC068B10BD0000D2
:100B90001F4ADFED200A1C4892ED001ADFF86CC0F6
:100BA000817961EE200A02239CED000A012221B125
:100BB000012912D002291BD020E0DFF85CC0B3EE7F
:100BC000071AB4EEE00A8CED001A9FED141AF1EE4C
:100BD00010FA8CED021A10D308E0DFED110A61EE75
:100BE000200AB4EEE00AF1EE10FA07DD837105E0A9
:100BF000B4EEE00AF1EE10FA00D2827183798B42F2
:100C000018BFC27270470000100200209405001047
:100C10007C050010CDCC4C3F4C0000200000704201
:100C20009A99593FFEE7704772B600250E4C0F4F58
:100C300040F6485620684663206886632068C5638E
:100C40002068056400224FF40071384601F0CDFFA2
:100C500000224FF400714FF0904001F0C6FF642075
:100C600001F012F9E6E70000EC0B00200008004854
:100C7000014801F09CBA00008006002010B5806A8F
:100C8000E02180F83110416B41F00801416301F02F
:100C90006BFD10BD70B5846AE068002808BF21684C
:100CA00020D0E06A00250563E16A1948C862E16A5C
:100CB000184848632068238A00F11802E168E06A56
:100CC00001F07CF8002805BFE5602582E02070BDBA
:100CD00084F83100606B40F008006063204601F04A
:100CE00043FD70BDCA6812F0004F03D0401CC0B273
:100CF000FF28F7D3C86810F0004F18BFA020E7D135
:100D0000202084F83100204601F032FD70BD000043
:100D1000950C00087D0C000810B5806A01F0EAFD12
:100D200010BD10B5806A002181610162818320219C
:100D300080F8321001F060FE10BD00002DE9F04196
:100D40000546006890460C46C06810F0004F5CBF36
:100D500095F8310020281CBF0120BDE8F0814FF03C
:100D6000240085F8310001F045FF00210646696046
:100D7000607828B1286802682388C3EA020202600A
:100D80006268B2F1FF3F07D02868036802F0407242
:100D900023F040731A430260607A28B128684268E1
:100DA0002389C3EA02024260E07A28B12868826897
:100DB0006389C3EA02028260E068B0F1FF3F07D0B6
:100DC0002A68936800F0407023F0407318439060E5
:100DD000208C627F00F40040012A18BF032A04D04F
:100DE000A27F012A18BF032A01D140F00C002A6813
:100DF0001061607F2872A07F687294F82820606A72
:100E000094F82A3040EA020094F829204FF0200795
:100E10004FEA022242EA034240EA020040F0004068
:100E20006860A06900281CBF207F002862D0227D56
:100E30004FF0024343EA022240EA02002A68D060EF
:100E4000B8F1010F15D02069E860207D2882E86A9A
:100E50000163E96A2A48C862E96A2A48486328683F
:100E6000237F00F11802A169E86ABDE8F04100F0B3
:100E7000A5BF207F58B1A1692A68098889B291610C
:100E8000A169891C401EA16110F0FF00F3D1206907
:100E900000281CBF207D00280DD021692A68098800
:100EA00089B291612169A0F1010001F10201216182
:100EB00010F0FF00F1D128684FF47A74C06810F088
:100EC000004F17D001F096FE801BA0420DD9686B31
:100ED00040F080006863686B40F080006863A02089
:100EE00085F831000120BDE8F0812868C06810F065
:100EF000004FE7D185F831700020BDE8F081000097
:100F0000950C00087D0C0008F8B5002504460095F6
:100F100090F858000E46012804BF0220F8BD0120B9
:100F200084F858002046FFF761FD0200E06D18BF0D
:100F300040F0100029D120F4885040F00200E06514
:100F40002068816806F0804321F03F0121F0404194
:100F5000194341F0004181600E4B20688168C90F40
:100F60000ED00099491C00918B42F7D8E06D20F01B
:100F7000020040F01000E06584F858500120F8BDF0
:100F8000E06D20F0020040F00100E06584F8585068
:100F90001046F8BD02DE04002DE9F00790F8582055
:100FA00000249BB0012A01BF02201BB0BDE8F0075E
:100FB0007047012280F85820002317931893026885
:100FC000DFF848C1B2F1A04F04BFCDF800C06546BC
:100FD00012D0A2F1A045B5F5806504BF4C4D009537
:100FE0000AD0C16D41F02001C16580F858301BB0B6
:100FF0000120BDE8F0077047AD689668C5F380052D
:1010000016F0040F08BF002D0DD0C16D41F0200176
:10101000C1654FF0010400BF80F858301BB0204676
:10102000BDE8F0077047B2F1A04F1ABF6245394AD8
:10103000394A4FF0A045D1F80090384E384FDFF8CC
:10104000E480B9F1000F3AD0D2F8089090F838A0B7
:1010500029F4604949EA4A39D1F804A049EA0A0961
:10106000C2F80890D0F80090B9F1A04F18BFE14540
:1010700008D1D5F808C0D5F808514CEA050C0CF099
:10108000010C0AE0D6F800C03D684CEA050CD8F81F
:1010900000504CEA050C0CF0010CBCF1000FBBD168
:1010A000D1F800C089684CEA0101D2F808C02CF0E0
:1010B0001F0C2CF4706C41EA0C019160ACE7916854
:1010C00021F4604191600168B1F1A04F18BF614502
:1010D00007D1A968D5F808C141EA0C0101F0010166
:1010E0000AE03168D7F800C041EA0C01D8F800C026
:1010F00041EA0C0101F00101002902BF916821F0D1
:101100001F0121F4706187D1D7E700000001005072
:101110000005005000070050000300500804005074
:1011200008050050080600502DE9F00785B04FF083
:10113000000CCDF804C090F858206446012A01BF85
:10114000022005B0BDE8F0077047012380F8583051
:101150000268956815F0040F0BD0C16D41F02001B5
:10116000C1659C4680F8584005B06046BDE8F00770
:101170007047D1E900650C2707EA95173A44176BC9
:1011800005F01F054FF01F0808FA05F8C6F384663E
:1011900027EA080706FA05F53D43156302689568D6
:1011A0009668C5F38005C6F3C00655EA06074FF0FA
:1011B00004054FF0070658D18F68B7F1004F5BD098
:1011C000D1F8008005EAD8594A44D2F81490C8F3FF
:1011D000045806FA08FA29EA0A0907FA08F749EA58
:1011E000070757610268576927F00047576102688F
:1011F0004F69D2F80C80C8F3C1084FEA480807FAD3
:1012000008F80F69042F4FD002EB8702D1F8009045
:10121000176EDFF804A409F0F84907EA0A0749EA5B
:10122000080847EA080747F000471766D0F800802B
:101230000A698F6908EB8202D2F8608028F0807812
:1012400048EA070717660F7FD0F800800A69012F68
:101250000CBF4FF00077002708EB8202D2F86080C5
:1012600028F0007848EA070717660268976817F0C1
:10127000010F7DD000F03CB90F684FF0000805EA7F
:10128000D7594A44D2F81490C7F3045706FA07FA1C
:1012900029EA0A0908FA07F749EA070757610268C5
:1012A000576947F00047A1E7176E00277F037F0BC0
:1012B000176E07F0F8471ABF97FAA7F7B7FA87F83B
:1012C0004FEA97680F68C7F31209B9F1000F0EBF14
:1012D000C7F3846797FAA7F7B7FA87F7B84503D13A
:1012E000176E27F0004717660268576E0027121D19
:1012F0007F037F0B176E07F0F8470EBF4FEA976822
:1013000097FAA7F7B7FA87F80F68C7F31209B9F188
:10131000000F0EBFC7F3846797FAA7F7B7FA87F7EE
:10132000B84503D1176E27F0004717660268976E1D
:10133000002708327F037F0B176E07F0F8470EBFB8
:101340004FEA976897FAA7F7B7FA87F80F68C7F3D5
:101350001209B9F1000F0EBFC7F3846797FAA7F718
:10136000B7FA87F7B84505D1176E27F0004700E0B8
:1013700024E017660268D76E00270C327F037F0BCC
:10138000176E07F0F8470EBF4FEA976897FAA7F76E
:10139000B7FA87F80F68C7F31209B9F1000F0EBF4B
:1013A000C7F3846797FAA7F7B7FA87F7B84504BF7A
:1013B000176E27F000477FF458AF55E7DFF85C92CF
:1013C000D1F80C800F68C845D2F8B080C7F3120777
:1013D00014BF28EA070748EA0707C2F8B070CA68CE
:1013E0004A457DD10A680768C2F31208B8F1000FB8
:1013F0001ABF92FAA2F8B8FA88F8C2F3846808F122
:10140000010808F01F08B8F1090FC2F312082BD821
:10141000B8F1000F1ABF92FAA2F8B8FA88F8C2F32E
:10142000846808F1010808F01F0803FA08F80EBFE5
:10143000C2F3846392FAA2F3B3FA83F303F10103D4
:1014400003F01F0348EA83630EBFC2F3846292FA7B
:10145000A2F2B2FA82F202F1010202F01F0202EBE2
:10146000420243EA025230E0B8F1000F0EBFC2F36D
:10147000846892FAA2F8B8FA88F808F1010808F02E
:101480001F0803FA08F80EBFC2F3846392FAA2F3AE
:10149000B3FA83F303F1010303F01F0348EA836304
:1014A0000EBFC2F3846292FAA2F2B2FA82F202F1A1
:1014B000010202F01F02DFF8688102EB420208EB32
:1014C000025243EA020242F0007205EAD2533B4460
:1014D000D1F808805D69C2F3045206FA02F600E012
:1014E00006E025EA060508FA02F245EA02025A6118
:1014F0000B684C490B423FF435AE01684A4D4B4FE7
:101500004B4EB1F1A04F16BFB1422A463A469268FF
:1015100003F1705802F0E07218F55F081ABFDFF8A7
:101520001481434512F4000F1FD003F1605818F5E1
:101530002E0808BF12F0807F52D003F1505818F5E2
:10154000F80808BF12F4800F7FF40CAEB1423FF4EC
:1015500009AEB1F1A04F18BF3D4642F48001AA6820
:1015600022F0E0721143A960FCE5B1F1A04F08D070
:10157000A1F1A043B3F5C0637FF4F4ADB14218BF4D
:101580003D4642F40001AA6822F0E0721143A960CE
:1015900029492A4A0968B1FBF2F1491C01EB4101D2
:1015A0008900019100913FF4DDADB1F1004F2DD2E2
:1015B0000029D8BF002105DD11F0010102D0019AF8
:1015C000521E0192009A491C521C9142BFF6CAADAC
:1015D000019B891C5B1E5B1E01939142F8DBC1E5F8
:1015E000B14204BFA1F1A043B3F5A0633FF4BAAD8B
:1015F000B1F1A04F1CBFB1423D4642F08071AA68D4
:1016000022F0E07242EA0101A960ABE50199491EAE
:101610000191FCD1A6E5000000F0FF0300007F402F
:10162000000020FE0000088000030050000700506A
:10163000000100501000C090A0000020400D0300E9
:10164000704770477047000070B584B04FF00005D8
:1016500004002E46029502BF012004B070BDE06D6B
:1016600028B9204600F038F9266684F858602068CA
:101670008168C1F3407129B1816821F03F0121F0F7
:101680002041816020688168C1F3007159BB816885
:1016900021F03F0121F0004141F0805181608448F8
:1016A00084490068B0FBF1F04000801C029000907B
:1016B00019D0B0F1004F80F0F5800028D8BF00208D
:1016C00005DD10F0010002D00299491E0291009937
:1016D000401C491C884206DA029A801C521E521E87
:1016E00002928842F8DB20688168C1F3007141B939
:1016F000E16D41F01001E165216E41F001012166CB
:1017000001258168E26DC1F3800112F0100F08BF5E
:10171000002908D0E06D40F01000E0654FF00105B1
:1017200004B0284670BDE16D21F4807141F00201E2
:10173000E165816811F0010F1AD15F4AB0F1A04F45
:1017400018BF904207D14FF0A0418B68D1F8081123
:1017500043EA010109E059490968594B1B6841EA0C
:101760000301584B1B6841EA030111F0010F10D02F
:10177000E168E06B627F40EA0100A16841EA423122
:1017800040EA010094F8241040EA0140012914D1F4
:101790000DE0B0F1A04F1ABF90424B484B48616832
:1017A000826822F47C1242EA01018160E0E7218D27
:1017B000474A02EB414141EA0000E16A31B101F4DC
:1017C0007871226B41EA000042EA00002168CA6891
:1017D000404B02EA030242EA0000C8602068016947
:1017E000626B21F0406141EA020101612068816879
:1017F0008268C1F38001C2F3C00211432FD1217F5F
:1018000094F83820890341EA4201C26822F00202BA
:1018100022F480421143C1602069002820680169D8
:101820000AD041F4803101612068D0F8C0102269EB
:101830006FF30D01114307E021F48031016120684D
:10184000D0F8C0106FF30D01C0F8C01094F840003C
:1018500001280CD02068016921F001010161606953
:1018600001282068016B21F00F0113D10FE0D4E9AA
:1018700011010843D4E91312114340EA0102206820
:1018800001696FF38A01114341F00101E6E7226A21
:10189000521E11430163E06D20F0020040F0010090
:1018A000E0653DE70298401E0290FCD11BE7000076
:1018B000A0000020400D030000010050080400506B
:1018C00008050050080600500007005000030050B3
:1018D0000000FEFF0740F0FF2DE9F04F9BB0002510
:1018E000064615951695179518955421684619952D
:1018F000FEF7C8FC4FF4004130688A038A4F8B4CD6
:101900004FF02008B0F1A04F3ED0A0F1A0434FF41B
:1019100080794FF4806A4FF4805BB3F5807324D0F4
:101920004A000904A0F1A043B3F580637ED0A0F182
:10193000A043B3F5A0637AD0A0F1A043B3F5C06390
:101940001CBF1BB0BDE8F08F68460092129102F0F8
:101950005FFB002818BFFFF767F97868401C7860C4
:10196000012840F0CB8000F0C1B868461192009188
:1019700002F04EFB002818BFFFF756F93868401CEC
:10198000386001284AD141E068461192009102F086
:101990003FFB002818BFFFF747F93868401C386044
:1019A000012807D1E06C40F40050E064E06C00F4E2
:1019B00000501A90E06C40F00100E064E06C15A962
:1019C00000F001001A90022015900320CDE91605C1
:1019D0004FF0904001F012F8564C55482060052019
:1019E000C4E901054FF40070E560C4E904508000CB
:1019F000C4E9060880002062204600F04BF9002868
:101A00004AD17465A6621BB0BDE8F08FE06C40F46B
:101A10000050E064E06C00F400501A90474C4648D7
:101A200020602420C4E90105204601E00CE034E0F8
:101A3000C4F820B0E560C4E90459C4E906A800F080
:101A400029F90028DDD06CE068460092129102F07E
:101A5000DFFA002818BFFFF7E7F87868401C7860C5
:101A6000012807D1E06C40F48040E064E06C00F4B1
:101A700080401A90334C324820602520C4E901058B
:101A8000C4F820B0E560C4E90459C4E906A82046BA
:101A900000F000F90028B4D043E0684600921291AB
:101AA00002F0B6FA002818BFFFF7BEF87868401CAD
:101AB0007860012807D1E06C40F48040E064E06C7D
:101AC00000F480401A90214C1F4820602620C4E971
:101AD0000105C4F820B0E560C4E90459C4E906A8CA
:101AE000204600F0D7F800288BD01AE0E06C40F4D4
:101AF0008040E064E06C00F480401A90154C14487B
:101B000020602720C4E90105C4F820B0E560C4E9DD
:101B10000459C4E906A8204600F0BCF800283FF4A8
:101B200070AFFFF781F86CE76C00002000100240F6
:101B3000080002403C0400201C0002409C040020DD
:101B400030000240FC040020440002405C050020FC
:101B500058000240BC0500202DE9F047044600680B
:101B6000454F90468946B0F1A04F16BFB842434951
:101B70004349896801F01F05816811F0040F78D18D
:101B800094F85810012974D0012184F85810A0F15C
:101B9000A041B1F5C0610CBF01200020401E2842C9
:101BA0004FF0000618BF052D06D0092D1EBF0120DD
:101BB00084F85860BDE8F0872046FEF756FF0028FD
:101BC0001CBF84F85860BDE8F087E06D20F001008C
:101BD00020F4606040F48070E0652068B84208BF7F
:101BE0004FF0A04106D0A0F1A041B1F5A0610CBF1B
:101BF00024490146814218BF002D03D1E06D20F435
:101C00008010E065E06D10F4805F08BF266603D0A9
:101C1000206E20F006002066616D1B48C862616D71
:101C20001A480863616D1A48486321684FF01C0028
:101C3000086084F858602068416841F010014160F4
:101C40002068C16841F00101C1602068434600F18D
:101C500040014A46606D00F0B1F821688A6822F0C0
:101C60003F0222F0004242F004028A60BDE8F087A1
:101C7000FFE70220BDE8F08700010050000300509C
:101C8000000700500004005045090008E109000861
:101C9000C709000870B4002802BF012070BC70475B
:101CA000DFF8ECC001683B4A614508D23A4B0B446F
:101CB000A2FB03431B099B004364384B07E0384BEE
:101CC0000B44A2FB03431B099B004364354B036495
:101CD000022380F825300B68D0E902452C43D0E977
:101CE000045635432C4385696FF30E132C43C569A5
:101CF0002C43056A2C4323430B600368634534BFC0
:101D000029492A49DBB2083BA2FB0332436C23F08A
:101D100003030B442649C0E91231C2F30411012226
:101D200002FA01F10165D0F808C00021BCF5804F2E
:101D300008BF416090F804C0C3F800C0D0E9133C6C
:101D4000C3F804C04368A3F1010CBCF1030F14D81D
:101D5000DFF860C0DBB20CEB830C5B1E03F01F03EB
:101D6000154C02FA03F3C365C0E915C4CCF80010A2
:101D7000D0E9163CC3F804C002E041658165C16545
:101D8000C16380F8252080F8241070BC00207047C3
:101D900008040240CDCCCCCCF8FFFDBF00000240CF
:101DA000F8FBFDBF0004024000080240200802408A
:101DB00080080240FC0802404009024070B490F8DC
:101DC00024404FF0000C012C02BF022070BC704771
:101DD000012480F8244090F825600025012E1CBFC6
:101DE00080F824504FF0020C02D070BC604670475F
:101DF000022680F82560C56305682E6826F0010676
:101E00002E60D0E913566E60456D002D1CBFD0E9E1
:101E100016566E6090F8445005F01F05AC40056CF6
:101E20006C60046863608368102B036803BF9A606A
:101E30000268D16099601CBF0168CA60016B00290B
:101E400001680A6818BF42F00E0206D122F00402AF
:101E50000A6001680A6842F00A020A60816C0A6836
:101E600012F4803F03D00A6842F480720A60416D28
:101E700019B10A6842F480720A600068016841F092
:101E800001010160B1E7000070B5044600F0B2FE48
:101E90000546B4F1FF3F02D004484068044400F016
:101EA000A9FE401BA042FAD370BD000078000020BC
:101EB00010B490F85C30012B18BF022B07D0016ED4
:101EC00041F00201016610BC4FF001007047D0F8EC
:101ED00000C0DCF8583011F0070F02D013F0010FEA
:101EE00023D011F0380F02D013F0020F1DD011F4DF
:101EF000E07F02D013F0040F17D011F4F05F02D08E
:101F000013F0080F11D011F4604F02D013F0100F2E
:101F10000BD011F4403F02D013F0200F05D011F484
:101F20007C0F08D013F0400F05D1DCF85C4044F082
:101F30000104CCF85C4011F0070F18BF13F0010F3B
:101F400023D00368D3F85CC04CF0020CC3F85CC02B
:101F500011F0800F06D00368D3F8DCC04CEA020C05
:101F6000C3F8DCC011F4807F06D00368D3F8E0C06A
:101F70004CEA0202C3F8E0200068426D42EA010127
:101F8000416510BC4FF00000704711F0380F18BFCA
:101F900013F0020FD5D111F4E07F18BF13F0040F36
:101FA000CFD111F4F05F18BF13F0080FC9D111F4AD
:101FB000604F18BF13F0100FC3D111F4403F18BF8A
:101FC00013F0200FBDD111F47C0F18BF13F0400F98
:101FD000B7D1BDE790F85C20012A18BF022A06D0CD
:101FE000016E41F0020101664FF0010070470A687E
:101FF0008AB10B7B0A6991F808C042EA43734A69C7
:10200000406C496842EA8C7200EBC100C0E90032C2
:102010004FF0000070470B7A4A69B1F810C042EAED
:1020200083720B7B006C4FEAC363496843EA0C433D
:1020300042EA030240F82120EAE710B490F85C403D
:10204000DDF804C0012C06D0016E41F004010166E8
:1020500010BC012070470901006841EA820141EA91
:102060004301D0F8802041EA0C0122F03F021143E5
:10207000C0F8801010BC0020704770477047000007
:1020800070B490F85CC0BCF1020F06D0016E41F054
:102090000801016670BC01207047D0F800C04029DB
:1020A00069D0DCF8984014F00F0F75D0DCF898C0B8
:1020B000CCF30124D0F84CC004EBC4050CEBC50CE8
:1020C000DCF8005015F080455560DCF800500CBF7E
:1020D000C5F38A4525F060451560DCF8005005F031
:1020E000005595605CF8045B05F0004515613CF80F
:1020F000045BADB2D5615CF8045C05F47025D56075
:102100005CF8046C06F4801656615CF8046C06F406
:10211000001696615CF8046CC6F3066616625CF8FD
:10212000046CF60F5662204E06EB15452D78C5B1AE
:102130005B1EACF1010C15F0010F03D01CF8015F20
:1021400003F8015FD26806EB12421278520808D0F9
:102150009CF801505D701CF8025F03F8025F521E8C
:10216000F6D1006840290CBFC0F89440C0F89C40EC
:10217000002070BC7047DCF8904014F00F0F0BD0BB
:10218000DCF890C0CCF30124D0F848C004EBC405BF
:102190000CEBC50C94E7FFE7016E41F4807101661A
:1021A00070BC01207047000070A2000870472DE944
:1021B000F04704460068016D426D01F4E05102EA07
:1021C0000106016D426D01F0070102EA0107016D90
:1021D000426D01F0380102EA0108016D426D01F41F
:1021E000710102EA0105016D426D01F4602102EA0C
:1021F0000109016D11F0400F1CBF416D11F0400F3E
:1022000004D0402101652046FFF7D0FF2068016D12
:1022100011F4807F1CBF416D11F4807F0AD0D0F88B
:10222000D810D0F8E02011404FF4807202652046AB
:1022300000F096FA2EB1206806653146204600F07F
:1022400091FA2FB1206807653946204600F020FA40
:10225000B8F1000F06D02068C0F8508041462046F3
:1022600000F036FA2068016D11F4007F1CBF416D4B
:1022700011F4007F05D04FF400710165204600F095
:1022800072FA2068016D11F0800F1CBF416D11F0D2
:10229000800F0BD0D0F8D410D0F8DC2002EA010176
:1022A0004FF080020265204600F05BFA2068016D65
:1022B00011F4005F1CBF416D11F4005F05D04FF4B5
:1022C00000510165204600F04AFA2068016D11F4C2
:1022D000004F1CBF416D11F4004F05D04FF4004179
:1022E0000165204600F03AFA2068016D11F4804F34
:1022F0001CBF416D11F4804F06D04FF48041016541
:10230000206E40F080002066B9F1000F06D02068F2
:10231000C0F8509049462046FFF7B0FE25B120682E
:102320000565206E28432066206E00281CBF2046CD
:10233000FFF7A3FEBDE8F087002804BF0120704727
:102340002DE9F0410446DFF8188290F85C00002582
:1023500020B984F85D50204600F00AF920688169B0
:1023600021F01001816100F045FC0646206880697B
:102370004FF0030710F0080F0AD000BF00F03AFC3E
:10238000801B0A2817D82068806910F0080FF5D143
:102390002068816941F00101816100F02BFC064653
:1023A0002068806910F0010F13D100BF00F022FCFB
:1023B000801B0A2808D9206E40F00100206684F8AE
:1023C0005C700120BDE8F0812068806910F0010F89
:1023D000ECD02068816941F00201816120684045AC
:1023E00002D1604960680860207C0128206881690A
:1023F0000CBF21F0400141F040018161607C012867
:10240000206881690CBF41F4804121F480418161E1
:10241000A07C0128206881690CBF21F4805141F41F
:102420008051816120688169A26821F44071114363
:1024300081612068816921F0A401816120680169BE
:1024400021F010010161E068012810D0C8B1022814
:1024500012D02068816941F08001816120680169A2
:1024600041F010010161E068032805D009E020680F
:10247000816941F0040103E02068816941F0200195
:102480008161207EE2694006A0F100716FF0FF00DB
:1024900000EB02221143226AA38A521E0A43010260
:1024A00001EB03431A432368DA61A268B2F5407F67
:1024B00010D1E36AA26A00EB0320521E1043226B84
:1024C0000B1303EB02121043A28C01EB02410843F1
:1024D0002168C8602068D0F8C010E26B1143C0F8D2
:1024E000C01021682048A1F18042B2F5D04208BF57
:1024F0001E48A1F18042B2F5D84208BF00F5D46071
:102500002064D1F88020A38E22F4F81242EA03421C
:10251000C1F8802000F1700161642168D1F8802049
:1025200094F8383022F0706242EA0362C1F88020E9
:1025300000F1B001A164D831E164D83121651831CE
:102540006165D831884203D240F8045B8842FBD3EE
:10255000A5652566012084F85C000020BDE8F081B7
:10256000006400400065004000A4004050A7004007
:102570002DE9F0479CB0002604461596169617964E
:102580001896542168461996FDF77CFE20684FF492
:1025900080514A033B4D0227DFF8ECA03B4CA0F1F1
:1025A00080434FF003084FF00909B3F5C84316D034
:1025B000A0F18043B3F5D0431CBF1CB0BDE8F08749
:1025C00068460E92009101F023FD002818BFFEF727
:1025D0002BFB2868401C2860012835D12CE0684678
:1025E0000E92009101F014FD002818BFFEF71CFBAD
:1025F0002868401C2860012807D1A06D40F00070B9
:10260000A065A06D00F000701A90E06C40F0020030
:10261000E064E06CCDF8649000F002001A904FF492
:102620004070CDE91507CDE9176815A9504600F0AF
:10263000E5F91CB0BDE8F087A06D40F00070A06522
:10264000A06D00F000701A90E06C40F00200E064B1
:10265000E06CCDF8649000F002001A906020CDE9A3
:102660001507CDE9176815A9504600F0C7F90022F3
:102670000321562001F06CFA562001F059FA1CB0E3
:10268000BDE8F087740000200004004800100240FC
:1026900000B58DB00AAB6A464021FFF7F1FC009807
:1026A000A0F5E06079381CBF0DB000BDBDF82A1060
:1026B0000A98ADF8301080B2401E00EE100A0348B0
:1026C000B8EEC00A80ED020A0DB000BD4C0000203B
:1026D00000B58FB002AB04AA4121FFF7D1FC0498EA
:1026E000A0F20120062884BF0FB000BDC0B20E4981
:1026F00000EB800208700D4901EB420031F8123006
:102700000381BDF808305BBA21F81230BDF80A1019
:1027100049BA4180BDF80C1049BA81809DF80E106D
:1027200081710FB000BD0000100000205C0100208E
:1027300090F85C10012905D0016E41F0040101669A
:1027400001207047022180F85C1001688A6922F03C
:1027500001028A6100210166084670477047704790
:10276000704770477047704770470122FEF7E6BA1E
:102770007047000010B58CB0002005218DF80800CE
:102780008DF809108DF8001007218DF801100C212B
:102790008DF80A1006218DF80B1014490190CDE92F
:1027A0000301134A0692022103228DF814104FF000
:1027B00010638DF828208DF81C2009938DF82910BE
:1027C0008DF81D008B0301248DF82A008DF81E4022
:1027D000089369460748FFF7C8FFADF82C400BAADD
:1027E0000549044800F00AF80CB010BD6200002052
:1027F00066000020E4060020C400002070B50446F6
:1028000000202368D3F80CC01CF0004F09D4D4F882
:1028100004C0BCF1000F04D094F831C0BCF1200F0B
:1028200001D0012070BD4FF0240C84F831C094F821
:1028300008C0BCF1010F08BF4FF4007003D0BCF119
:10284000030F08BF022094F809C0BCF1010F08BFB4
:1028500040F4807004D0BCF1030F08BF40F00100C9
:10286000D3F810C02CF0030C2CF4407C4CEA000090
:1028700018614FF000005FEA010CA0834FF02005C3
:102880001EBF002A1188002911D0637A4FF025015C
:10289000012B11D05BB1C4F818C0226284F8321049
:1028A000D4E90012C1F80C2084F8315070BDA06149
:1028B000206284F83250F3E7A061206284F832107D
:1028C000A16A09480863A16A0848C862A16A084861
:1028D00048632068138800F11C016246A06AFFF774
:1028E0006DFA0028E0D1DBE7190D0008230D000880
:1028F0007D0C000870470000002804BF01207047CD
:102900002DE9F041044690F83100002620B984F802
:102910003060204600F03CF86660E6606661268222
:10292000202784F83370A6612662A68384F832706B
:1029300000F060F905462068016941F480310161C9
:102940002068006910F4803F18D000BF00F052F9F1
:10295000401BB0F5FA7F0CD9606B40F080006063DB
:10296000606B40F010006063A02084F8310001200B
:1029700009E02068006910F4803FE7D16663666370
:1029800084F83170002084F83060BDE8F0810000E8
:1029900038B505460068A0F18041B1F5053118BF92
:1029A00038BD1248816C41F010018164806C114C7B
:1029B00000F0100000900E4820606E206060002043
:1029C000A060E06020614FF4007060614000A06191
:1029D0002020E061000220622046FFF75BF900281A
:1029E00018BFFEF721F9AC62A56238BD00100240A5
:1029F000800002401C070020704700000B68002286
:102A0000002B08BF70472DE9F84F724D704C4FF006
:102A100001094FF0030C4FF00F0A05F1040E00BF3F
:102A20000B6809FA02F73B4000F0CA800E7906F005
:102A30000306012E18BF022E19D1D0F808804FEAE4
:102A400042060CFA06FB28EA0B08D1F80CB00BFA88
:102A500006F646EA08068660466826EA07060F7903
:102A6000C7F3001707FA02F747EA060646604E6802
:102A70003CEA06060BD0C76856000CFA06F827EAAF
:102A80000807D1F8088008FA06F63E43C6600E79BA
:102A900006F00306022E11D1D60800EB8607D7F800
:102AA00020805607F60E0AFA06FB28EA0B08D1F832
:102AB00010B00BFA06F646EA08063E6207685600B2
:102AC0000CFA06F827EA080791F8048008F00308D2
:102AD00008FA06F63E4306604E6816F4403F6FD093
:102AE000266E46F001062666266E06F00106009662
:102AF00022F0030606F1804707F58037D7F80880F3
:102B00009607360F0AFA06FB28EA0B08B0F1904F39
:102B100008BF4FF0000B28D0A0F1904BBBF5806BA5
:102B200008BF4FF0010B20D0A0F1904BBBF5006B1C
:102B300008BF4FF0020B18D0A0F1904BBBF5406BD3
:102B400008BF4FF0030B10D0A0F1904BBBF5805B9A
:102B500008BF4FF0040B08D0A0F1904BBBF5A05B71
:102B60000CBF4FF0050B4FF0060B0BFA06F646EACA
:102B70000806BE602E684F689E4317F4801F18BF7A
:102B80001E432E60DEF800604F689E4317F4001F5E
:102B900018BF1E43CEF800600F4F3E68D1F8048086
:102BA0009E4318F4003F18BF1E433E600B4F3E6823
:102BB000D1F804809E4318F4803F18BF1E433E6046
:102BC0000B68521CD3407FF42BAFBDE8F88F000098
:102BD00000100240080401400404014000040140C8
:102BE0000069084018BF01207047002A14BF8161A6
:102BF00081627047014880687047000078000020BB
:102C000090F8DD30022B1BBF90F8DC30012B022046
:102C1000012314BF80F8DC30704710B44FF0020C71
:102C200080F8DDC04FF0000C20294DD00CDC0429C9
:102C300034D004DC012925D0022929D00EE008294E
:102C400032D0102938D009E0402943D0802947D01C
:102C5000B1F5807F4AD0B1F5007F4FD0072180F8D1
:102C6000DD1080F8DCC000BF90F8DD10072902BF3E
:102C7000012010BC704780F8DD3080F8DCC010BC4B
:102C8000002070470168D1F8004462F3040410E0AA
:102C90000168D1F8004462F38A140AE00168D1F8AF
:102CA000004462F3103404E00168D1F8004462F398
:102CB0009644C1F80044D7E70168D1F8004462F3B4
:102CC0001C64C1F80044CFE70168D1F8044462F302
:102CD000040410E00168D1F8044462F38A140AE0A5
:102CE0000168D1F8044462F3103404E00168D1F8BB
:102CF000044462F39644C1F80444B5E70168D1F88E
:102D0000044462F31C64C1F80444ADE790F8DD307C
:102D1000022B19BF90F8DC30012B022070472DE9FF
:102D2000F001012580F8DC50022380F8DD300368D3
:102D3000D3F88043D3F8FCC3002620296CD00CDCE8
:102D400004293AD004DC012921D0022929D00EE03F
:102D500008293ED0102948D009E040297ED080299A
:102D60007DD0B1F5807F7BD0B1F5007F79D007228F
:102D700080F8DD2080F8DC6090F8DD20072A71D033
:102D800010293CBF0168C1F8804363D265E0176831
:102D900024F4E02407F4E02752683C43C3F8BC2342
:102DA000EAE717684FF4601824F4601408EAC707CC
:102DB00052683C43C3F8C023DEE717684FF0E07861
:102DC00024F0E07408EA871752683C43C3F8C42330
:102DD000D2E717684FF0606824F0606408EA47277C
:102DE00052683C43C3F8C823C6E717682CF0070CA9
:102DF000C7F3024747EA0C0CD3F8F87327F01F0714
:102E0000C3F8F8730368D3F8F873127902F01F025D
:102E10003A43C3F8F823AFE72CF07001D2F800C0B2
:102E2000702404EA1C3C4CEA010CD3F8F81321F49A
:102E30007871C3F8F8130168D1F8F83352684FF489
:102E4000787404EA42121A43C1F8F82390F8DD209E
:102E5000072A7AD00168C1F8FCC304E00BE025E042
:102E60003FE057E071E080F8DD5080F8DC60BDE8BD
:102E7000F0010020704717684FF4E0682CF4E06C14
:102E800008EA172747EA0C0CD3F8F87327F4F84739
:102E9000C3F8F8730368D3F8F87352684FF4F8482E
:102EA00008EA82223A43C3F8F82365E717684FF42B
:102EB000E0482CF4E04C08EA171747EA0C0CD3F86A
:102EC000F87327F4F817C3F8F8730368D3F8F873A6
:102ED00092884FF4F81808EA02423A43C3F8F823FC
:102EE0004AE717682CF4E02C07F4E02747EA0C0CBB
:102EF000D3F8F87327F07877C3F8F8730368D3F83A
:102F0000F87392884FF0787808EA42523A43C3F84F
:102F1000F82331E717684FF4E0082CF4E00C08EAD6
:102F2000071747EA0C0CD3F8F87327F0F847C3F8F3
:102F3000F8730368D3F8F87312794FF0F84808EA89
:102F400082623A43C3F8F82316E7BDE8F001012096
:102F5000704790F8DD30022B1BBF90F8DC30012B5E
:102F60000220012314BF80F8DC30704710B44FF00A
:102F7000020C80F8DDC04FF0000C072921D2DFE8F9
:102F800001F004080C1014181C000168C1F8DC23BF
:102F90001CE00168C1F8E02318E00168C1F8E423EF
:102FA00014E00168C1F8E82310E00168C1F8EC23DF
:102FB0000CE00168C1F8F42308E00168C1F8D823E7
:102FC00004E0072180F8DD1080F8DCC090F8DD1007
:102FD000072902BF012010BC704780F8DD3080F85F
:102FE000DCC010BC002070477047704770477047C6
:102FF00070477047704790F8DC20012A04BF022018
:103000007047012280F8DC20022380F8DD30B1F126
:10301000FF3F1AD00368D3F8CCC34CF0020CC3F8BE
:10302000CCC30368D3F8CCC32CF00C0C4CEA0101E0
:10303000C3F8CC130168D1F8CC3343F00103C1F8D5
:10304000CC3380F8DD20002070470168D1F8CC3304
:1030500023F00203C1F8CC330168D1F8CC3343F03C
:103060000103C1F8CC33ECE770477047002804BF78
:103070000120704738B50446022084F8DD000025A1
:10308000C4F8E050C4F8E450C4F8E850C4F8EC5078
:10309000C4F8F050C4F8F450C4F8F850207A10F096
:1030A000010F1DD02068A0F18041B1F5B43108D1E5
:1030B0001F48016E41F080610166006E00F0806083
:1030C000009020680168228A21F4404102F44042C5
:1030D0001143A28A21F4405102F44052114301608D
:1030E000204600F027F8207A10F0020F08D0206860
:1030F0000168A28921F4407102F440721143016019
:10310000012084F8DD00002184F8DC505FF0070224
:10311000C1EBC10004EB8000491C8561C5610562FB
:10312000456285620563521EF2D1002038BD000061
:103130000010024038B505460068A0F18041B1F5A5
:10314000B43118BF38BD1848016E41F08061016686
:10315000006E174C00F080600090144820605F20E3
:1031600060601020A0600020E060802020614000AE
:1031700060618000A0612020E0614FF44050206237
:103180002046FEF787FD002818BFFDF74DFDC5F866
:10319000E040002201214320A56200F0D9FCBDE8F7
:1031A0003840432000F0C4BC001002406C000240D4
:1031B00078080020704770477047704770B50D461B
:1031C0000446FFF717FD06462068D0F8880310F480
:1031D000803F0ED1B5F1FF3F05D0FFF70BFD801BFF
:1031E000A8420DD865B12068D0F8880310F4803F5C
:1031F000F0D0012084F8DD00002084F8DC0070BDF0
:10320000072084F8DD00032070BD704770477047C9
:1032100030B490F8DD30022B02BF022030BC704782
:10322000022380F8DD30062925D08023D0F800C0A5
:1032300003EBC1135CF80340956824F007042C43AA
:10324000D56824F018042C434CF803409424D0F89B
:1032500000C004EBC11413684CF804304FF0980C14
:1032600003680CEBC11152685A50012180F8DD103F
:1032700030BC0020704701680B68D2F808C023F00A
:1032800007034CEA0303D2F80CC023F018034CEAFE
:1032900003030B600368116859615168026891610A
:1032A000E3E7000090F8DDC0BCF1020F19BF90F811
:1032B000DCC0BCF1010F022070472DE9F0030127AB
:1032C00080F8DC704FF0020C80F8DDC000264FF073
:1032D000070806291DD04FF09C0C0CEBC115012AE4
:1032E00040D0A8244FF0800C04EBC1140CEBC11C9F
:1032F000022A3BD0042A5DD0082A1CBF80F8DD805A
:1033000080F8DC605AD000BF90F8DD1007297CD02F
:1033100010E0012A16D0022A18D0042A1AD0082A4E
:103320001CBF80F8DD8080F8DC6017D090F8DD10DD
:10333000072972D080F8DD7080F8DC60BDE8F0030A
:103340000020704702681968D161EFE702681968C8
:103350005162EBE7026819689162E7E70268196851
:10336000D162E3E7026819685151CDE74FF0A40933
:10337000D0F8008009EBC1111A6848F8012059689B
:103380000029016851F80C2022F4405242D041F843
:103390000C20016851F80C20D3F8048042EA08029E
:1033A00041F80C205968B1F5005F2FD0B1F5405FAE
:1033B00027D0A9E7026819681151A5E74FF0AC09B9
:1033C000D0F8008009EBC1111A6848F8012059684B
:1033D0000029016851F80C2022F440421AD041F82B
:1033E0000C20016851F80C20D3F8048042EA8802CE
:1033F00041F80C205968B1F5005F07D0B1F5405F86
:1034000082D10268996811517EE706E002689968E6
:10341000515179E741F80C2076E7BDE8F00301202F
:10342000704790F8DC20012A04BF02207047012277
:1034300080F8DC20022380F8DD300368D3F800C078
:103440004CEA0101196080F8DD20002180F8DC10D1
:10345000084670472DE9F05F044690F8DD000F46FE
:10346000022808BFBDE8F09F022084F8DD0094F830
:10347000DC00012804BF0220BDE8F09F4FF0010AE4
:103480002F4E84F8DCA017F4803F4FF000084FF077
:1034900007091CBFD4F8CC00002815D0D4F8E000F0
:1034A0004663D4F8E0102748C862D4E93412D4F84F
:1034B000D830D4F8E000FEF781FC10BB2068C1686A
:1034C000D4F8CC201143C160DFF87CB0002500BFE8
:1034D0005BF82500384223D0C5EBC50004EB80061D
:1034E000706AE8B12946204602F012FD48B114493D
:1034F00041631649C162D6E90A12336BFEF75EFCDE
:1035000030B184F8DD9084F8DC800120BDE8F09FC4
:103510008C20216800EBC5100A58736A1A430A50C0
:10352000681CC5B2062DD3D32068016839430160F9
:1035300084F8DDA084F8DC800020BDE8F09F000066
:10354000355D00083F5D000884000020B35D000881
:1035500090F8DC20012A04BF022070472DE9F00119
:10356000012480F8DC40022280F8DD200268D2F8D5
:103570009033D0F804C043EA0C03C2F8903311F43E
:10358000803F06D00268D368D0F8C8C043EA0C0375
:10359000D3600022124E8C2556F822300B420ED0FA
:1035A000036805EBC21C53F80C70C2EBC20800EBB9
:1035B0008808D8F8208047EA080743F80C70521CA6
:1035C000D2B2062AE8D3026813681943116080F862
:1035D000DD40002180F8DC10BDE8F00108467047AE
:1035E0008400002070B5044690F8DD00022808BF72
:1035F00070BD94F8DC00012804BF022070BD0125D5
:1036000084F8DC50022084F8DD00204602F0B4FC8F
:1036100084F8DD50002084F8DC0070BD90F8DC20D8
:10362000012A04BF02207047012280F8DC20022317
:1036300080F8DD300368D3F894C34CEA0101C3F885
:10364000941380F8DD20002180F8DC1008467047D4
:1036500090F8DC20012A04BF02207047012280F884
:10366000DC20022380F8DD300368D3F898C34CEAED
:103670000101C3F8981380F8DD20002180F8DC10E8
:10368000084670472DE9F04F90F8DD30022B19BF46
:1036900090F8DC30012B0220BDE8F08F4FF00103E1
:1036A00080F8DC304FF0020380F8DD304FF080030B
:1036B00003EBC11C06297DD0036853F80C4024F0AD
:1036C000704443F80C40046854F80C70E82303EB92
:1036D000C11E54F80E60E42303EBC11854F80850DF
:1036E000D4F8A033D2F8149027F0200749EA07074E
:1036F000B9F1200F19BFD2F81890B9F1020F27F4D1
:10370000C07747F0200712D0B9F1030F04BF47F08C
:10371000800727F480770AD0B9F1040F07BF47F478
:10372000807727F0800727F0200727F4C07727F459
:103730000067D2F81C9049EA0707D2F8209027F4D6
:10374000806749EA0707D2F8249027F0C06749EA62
:103750000707D2F8289027F0006749EA0707D2F850
:103760002C9027F0704749EA0707D2F8349027F4E5
:103770000037B9F1005F08BF47F4003727F0400970
:10378000976BD2F858A047EA090929F480294AEA38
:10379000090929F47909D2F850A029F080794AEA78
:1037A000090992F83CA026F03F060AF03F0A4AEACF
:1037B000060600E011E0D2F840A026F000464AEAF2
:1037C000060A566C25F480753543966CB6F5606F25
:1037D00018BFB6F5F05F49D146E004682368D4F815
:1037E000A063556923F0200345EA030323F0C003D7
:1037F000202D19BF9569022D23F0C00343F020034B
:1038000010D0032D04BF43F0400323F0800309D000
:10381000042D07BF43F0800323F0400323F020036F
:1038200023F0C00323F40063D5692B43156A23F406
:1038300080632B43556A23F0C0632B43956A23F0C2
:1038400000632B43D56A23F0404343EA8503556B5D
:1038500023F000532B4326F48035166B2360354349
:103860000368C3F8A05343E0402F02D125F4F0557C
:103870003543D66C25F480453543566D062927D24D
:10388000DFE801F003090F151B21176B23F4003348
:1038900043EA47031CE0176B23F4802343EA8703C2
:1038A00016E0176B23F4002343EAC70310E0176BFD
:1038B00023F4801343EA07130AE0176B23F4001381
:1038C00043EA471304E0176B23F4800343EA8713AA
:1038D00044F80C90046844F80EA0046844F80850BA
:1038E000D427056807EBC1142E510468C4F8A0332F
:1038F000C1EBC10300EB830314681C6254685C6273
:1039000094689C62D468DC6214691C63072933D212
:10391000DFE801F00C121A20262C04000168D1F80F
:10392000842342F00102C1F8842333E00168D1F816
:10393000843343F0020304E00168D1F8843343F098
:103940000403C1F8843319E00168D1F8843343F0EB
:103950000803F6E70168D1F8843343F01003F0E779
:103960000168D1F8843343F02003EAE70168D1F815
:10397000843343F04003E4E706290BD0D16A49B908
:10398000016851F80C30D26D23F4007343EA4222EF
:1039900041F80C20012180F8DD10002180F8DC10B6
:1039A0000846BDE8F08F90F8DD30022B19BF90F883
:1039B000DC30012B0220704770B44FF0010C80F80E
:1039C000DCC0022380F8DD30EC23046803EBC11572
:1039D0006359166823F0100343EA0613566823F46C
:1039E00080133343D66823F480333343966823F43B
:1039F000003333439669012E09D1166923F004037D
:103A00003343526923F002031A4342F00103635126
:103A100007291AD2DFE801F00C1221272D33040008
:103A20000168D1F8842342F00102C1F884230CE03C
:103A30000168D1F8842342F0020204E00168D1F861
:103A4000842342F00402C1F8842380F8DDC0002101
:103A500080F8DC1070BC084670470168D1F88423F8
:103A600042F00802EFE70168D1F8842342F0100227
:103A7000E9E70168D1F8842342F02002E3E7016816
:103A8000D1F8842342F04002DDE70000024881685B
:103A900042681144816070477800002010B500240E
:103AA000032000F087F80F2000F008F8002814BF6A
:103AB000012400F025F8204610BD000070B50E4E20
:103AC00005460024706898B14FF47A71B1FBF0F0AC
:103AD0000A490968B1FBF0F001F0C4F940B9102DB2
:103AE00006D200222946501E00F032F8356000E070
:103AF0000124204670BD000078000020A0000020B6
:103B00000A4882B0016E41F001010166016E01F0C8
:103B100001010091816D41F080518165806D00F05F
:103B20008050009002B000F06BBA0000001002401C
:103B30000028B8BF704700F01F01012202FA01F10E
:103B40004009800000F1E020C0F80011704700003B
:103B5000174B10B41B68C3F30223C3F1070CBCF16D
:103B6000040F88BF4FF0040C1C1D072C34BF00232A
:103B7000DB1E012404FA0CFCACF1010C0CEA01017F
:103B8000994004FA03F35B1E1A40114300284FEAE0
:103B90000111A1BF00F1E02080F8001410BC7047B3
:103BA00000F00F0000F1E02080F8141D10BC7047F9
:103BB0000CED00E0074900F007000A684FF6FF032C
:103BC0001A4042EA002040F0FD7040F0806008603A
:103BD000704700000CED00E038B504004FF0000520
:103BE0001FBF94F83A00052894F83A00022804BF51
:103BF000012038BD3148016E41F001010166006EBF
:103C000000F00100009094F83A00002804BF002062
:103C100084F83900204600F055F8A168284840296A
:103C200018BF602921680A68E36A22F0100242EA9C
:103C300003020A60D4E9011241EA020122D0D4E968
:103C4000032342EA030241EA0201227D012A0CBF5A
:103C50004FF4807200221143626A1143A26A114339
:103C6000228E41EAC24194F8342041EA026221687E
:103C70000B681840104308602068816911F0004FFC
:103C800013D108E0237D2269012B0CBF4FF4807310
:103C900000231A43DFE7D4E906121143226A83693D
:103CA00023F03F031A431143816194F83A0000283E
:103CB00004BF012084F83A00284638BD00100240B5
:103CC000113E00E000B587B0002100910191029102
:103CD00003910491036832483249032283420ED192
:103CE000C86C40F00100C864C86C694600F001006F
:103CF00005900220CDE900024FF0904034E02A48C0
:103D000083420ED1C86C40F00100C864C86C69469B
:103D100000F0010005908020CDE900024FF09040B6
:103D200022E0DFF888C0224863450CD1CB6C43F019
:103D30000203CB64C96C01F0020105910121CDE9B8
:103D40000012694610E0DFF86CC0634510D1CB6CFF
:103D500043F00203CB64C96C01F0020105914FF4FA
:103D60008041CDE900126946FEF748FE07B000BD6C
:103D7000DFF844C063451CBF07B000BDCB6C43F007
:103D80000203CB64C96C01F0020105914FF480512C
:103D9000CDE900126946FEF731FE07B000BD000014
:103DA00000030140001002400403014008030140E9
:103DB0000004004810030140140301402DE9F041C4
:103DC00004004FF000081CBF94F83A00052803D007
:103DD00094F83A00012804D04FF001084046BDE8AD
:103DE000F0812068016841F00201016020680168EB
:103DF00041F0100101602068016841F40061016038
:103E00002068016841F4405101602068016841F078
:103E100001010160102608252068016821F0F85191
:103E200041EA066101600220FEF72EF82068006872
:103E300010F0804F14BF2E44761B6D08ECD1206823
:103E4000016821F0F85141EA066101600220FEF7A5
:103E50001BF82068016811F0804F06D00168761CBD
:103E600021F0F85141EA066101602068016821F4FF
:103E7000405141F4805101601025082720680168F5
:103E800021F4780141EAC54101600220FDF7FCFF01
:103E90002068006810F0804F14BF3D44ED1B7F0880
:103EA000ECD12068016821F4780141EAC541016044
:103EB0000220FDF7E9FF2068016811F0804F06D06D
:103EC00001686D1C21F4780141EAC5410160206858
:103ED000016821F4006101602068016821F001019E
:103EE00001602068016821F0020101601020666312
:103EF000C4E90B052068016821F4780141EAC54155
:103F000001602068016821F0F85141EA0661016012
:103F100064E7002100281CBF90F83A20052A03D04E
:103F200090F83A20012A02D0012108467047026821
:103F3000136843F001031360042280F83A20F4E789
:103F40002C4932222C4B09684A432C4950B1B0F518
:103F5000007F08682BD020F4C06040F480600860C7
:103F600000207047086800F4C060B0F5806FD1F899
:103F7000800020F4807002D0C1F88000F0E7C1F822
:103F80008000086820F4C06040F400700860B2FB54
:103F9000F3F000F101004A6912F4806F1CBF0028A1
:103FA000401EF8D1486910F4806F20D1D8E700F4A2
:103FB000C060B0F5806FD1F8800040F48070DBD134
:103FC000C1F88000086820F4C06040F40070086008
:103FD000B2FBF3F000F101004A6912F4806F1CBFDC
:103FE0000028401EF8D1486910F4806FB8D04FF017
:103FF00003007047A000002040420F000070004006
:104000000248816841F4804181607047007000403F
:104010002DE9F843044600680026CC4D10F4002F2B
:104020006CD0A86D002710F0805F08D1A86D40F01B
:104030008050A865A86D012700F080500090DFF83F
:104040001093D9F8000040F48070C9F80000FEF722
:10405000D1FD8046D9F8000010F4807F0BD100BF5D
:10406000FEF7C8FDA0EB0800022833D8D9F80000FD
:1040700010F4807FF4D0D5F8900010F440701CBF8D
:10408000216D814211D0D5F89000D5F8901020F420
:10409000407041F48031C5F89010D5F8901021F4AB
:1040A0008031C5F89010C5F8900010F0010F18D0BD
:1040B000FEF7A0FD8046D5F8900010F0020F08BF73
:1040C00041F288390DD100BFFEF794FDA0EB080046
:1040D000484501D903260CE0D5F8900010F0020FF6
:1040E000F2D0D5F89000216D20F440700843C5F857
:1040F00090001FB1A86D20F08050A865207810F0C6
:10410000010F07D0D5F88800616820F0030008434C
:10411000C5F88800207810F0020F07D0D5F8880085
:10412000A16820F00C000843C5F88800207810F042
:10413000040F07D0D5F88800E16820F0300008436C
:10414000C5F88800207810F0080F07D0D5F888004F
:10415000216920F0C0000843C5F88800207810F0DD
:10416000100F07D0D5F88800616920F4407008432B
:10417000C5F88800207810F0200F07D0D5F8880007
:10418000A16920F440600843C5F88800207810F049
:10419000400F07D0D5F88800E16920F4405008436B
:1041A000C5F88800207810F0800F07D0D5F8880077
:1041B000216A20F440400843C5F88800208810F4A4
:1041C000807F07D0D5F88800616A20F4403008432A
:1041D000C5F88800206810F4003F07D0D5F89C008F
:1041E000A16A20F003000843C5F89C00208810F461
:1041F000007F07D0D5F88800E16A20F4402008430A
:10420000C5F88800208810F4806F0FD0D5F888009A
:10421000216B20F440100843C5F88800206BB0F5EE
:10422000801F03D1E86840F48010E860208810F413
:10423000006F0FD0D5F88800616B20F44000084370
:10424000C5F88800606BB0F5800F03D1E86840F4D2
:104250008010E860208810F4805F0FD0D5F88800C7
:10426000A16B20F040700843C5F88800A06BB0F146
:10427000807F03D1E86840F48010E860208810F463
:10428000005F0FD0D5F88800E16B20F04060084354
:10429000C5F88800E06BB0F1006F03D1E86840F426
:1042A0008010E860208810F4804F0FD0D5F8880087
:1042B000216C20F040600843C5F88800206CB0F104
:1042C000006F03D1E86840F48010E860208810F4A3
:1042D000004F0FD0D5F88800616C20F040500843A3
:1042E000C5F88800606CB0F1805F03D1E86840F4E5
:1042F0008030E860206810F4803F0FD0D5F8880047
:10430000A16C20F040400843C5F88800A06CB0F1D3
:10431000804F03D1E86840F48030E860206810F4F2
:10432000802F0FD0D5F89C00E16C20F4401008439A
:10433000C5F89C00E06CB0F5001F03D1E86840F4BC
:104340008010E8603046BDE8F883000000100240AD
:10435000007000402DE9F0470E4605004FF00008C0
:104360007ED0764F386800F00F00864209D9386851
:1043700020F00F0030433860386800F00F00B04282
:104380006ED129686E4C11F0010F41F2883A66D067
:104390006868DFF8B091032806D00228206832D080
:1043A00010F4806F5CD031E0206810F0007F57D0AF
:1043B000E06800F00302E068C0F30310401C032A29
:1043C00019D0614AB2FBF0F0E268C2F30622504312
:1043D000E268C2F34162521C5200B0FBF2F0484561
:1043E00020D9A06810F0F00F14D011F0020F19D0EE
:1043F000A86878B116E0554AB2FBF0F0E268C2F363
:1044000006225043E4E710F4003F60D000F0CAF801
:10441000484507D9A06820F0F00040F08000A06077
:104420004FF08008A068696820F003000843A0608E
:10443000FEF7E0FB8146A068696800F00C00B0EB75
:10444000810F0CD0FEF7D6FBA0EB090050453BD8FE
:10445000A068696800F00C00B0EB810FF2D100E0B9
:1044600035E0286810F0020F34D010F0040F03D0AC
:10447000A06840F4E060A060287810F0080F05D034
:10448000A06820F4605040F4E060A060A068A968D3
:1044900020F0F0000843A060386800F00F00B04240
:1044A00025D9386820F00F0030433860FEF7A2FBB2
:1044B0008046386800F00F00B04218D0FEF79AFB33
:1044C000A0EB080050450DD90320BDE8F08701207E
:1044D000BDE8F087B8F1800F04BFA06820F0F000BD
:1044E000DAD1D8E7386800F00F00B042E6D128787A
:1044F00010F0040F05D0A068E96820F4E0600843DC
:10450000A060287810F0080F06D0A068296920F470
:10451000605040EAC100A06000F044F8A1680C4A75
:10452000C1F30311515C01F01F01C8400949086043
:1045300009480068BDE8F047FFF7C0BA0020024014
:104540000010024000B4C4040024F40000366E01E0
:10455000A8A20008A0000020780000200548064915
:1045600000688968054AC1F30221515C01F01F010E
:10457000C8407047A000002000100240B8A2000808
:104580000548064900688968054AC1F3C221515CA3
:1045900001F01F01C8407047A00000200010024039
:1045A000B8A200081849886800F00C021748042ACD
:1045B00008BF70478A6802F00C03154A082B04BF35
:1045C000104670478B684FF00C0C3CEA03031CBF8D
:1045D00000207047CB6803F0030CCB68C3F30313D0
:1045E0005B1CBCF1030F14BFB0FBF3F0B2FBF3F0A4
:1045F000CA68C968C2F306225043C1F34161491C2D
:104600004900B0FBF1F07047001002400024F400B4
:1046100000366E01002804BF012070472DE9F843E1
:1046200005460078FF4F10F0010F55D0B868F968C3
:1046300000F00C0001F003010C2802D0082820D063
:1046400001E003291DD06868B0F5803F22D0B0F5A5
:10465000A02F38680CBF40F4802020F480303860F0
:1046600038680CBF40F4803020F4802038606868DF
:1046700000B3FEF7BFFA0446386810F4003F0ED0CE
:104680002AE0386810F4003F26D06868002800F05F
:10469000208221E0386840F480303860E7E7FEF798
:1046A000A9FA001B642800F28481386810F4003FE6
:1046B000F5D011E0FEF79EFA0446386810F4003F8A
:1046C0000AD000BFFEF796FA001B642800F2718141
:1046D000386810F4003FF5D1287810F0020F58D058
:1046E000B86800F00C01F8680C2900F0030002D053
:1046F000042911D001E002280ED0E86800283868AB
:1047000033D040F480703860FEF774FA044638689D
:1047100010F4806F17D020E0386810F4806F03D059
:10472000E868002800F0D5817868297C20F0FE40F8
:1047300040EA01607860BC480068FFF7BFF90028D4
:1047400040F0C78125E0FEF755FA001B022800F271
:104750003081386810F4806FF5D07868297C20F0BB
:10476000FE4040EA0160786013E020F48070386019
:10477000FEF740FA0446386810F4806F09D000BF95
:10478000FEF738FA001B02287ED8386810F4806FD4
:10479000F6D1287810F0080F32D068690028D7F8D1
:1047A000940016D040F00100C7F89400FEF722FAFA
:1047B0000446D7F8940010F0020F21D1FEF71AFA40
:1047C000001B022860D8D7F8940010F0020FF5D033
:1047D00016E020F00100C7F89400FEF70BFA04463B
:1047E000D7F8940010F0020F0AD000BFFEF702FACB
:1047F000001B022848D8D7F8940010F0020FF5D11A
:10480000287810F0040F78D0B86D4FF0000810F041
:10481000805F09D1B86D40F08050B865B86D4FF039
:10482000010800F080500090804E306810F4807FC6
:1048300013D1306840F480703060FEF7DBF9044635
:10484000306810F4807F08D1FEF7D4F9001B0228ED
:104850001AD8306810F4807FF6D0A868012821D0DB
:104860000528D7F890000CBF40F0040020F00100AC
:10487000C7F89000D7F890000CBF40F0010020F07E
:104880000400C7F8900000E093E0A86841F2883681
:10489000D0B1FEF7AFF90446D7F8900010F0020F40
:1048A00007D023E0D7F8900040F00100C7F890004F
:1048B000E9E7FEF79FF9001BB0427AD8D7F89000DD
:1048C00010F0020FF5D011E0FEF794F90446D7F886
:1048D000900010F0020F09D0FEF78CF9001BB042D7
:1048E00067D8D7F8900010F0020FF5D1B8F1000F9B
:1048F00003D0B86D20F08050B865287810F0200FF4
:1049000032D0A8690028D7F8980016D040F00100EE
:10491000C7F89800FEF76EF90446D7F8980010F033
:10492000020F21D1FEF766F9001B022841D8D7F803
:10493000980010F0020FF5D016E020F00100C7F843
:104940009800FEF757F90446D7F8980010F0020FC8
:104950000AD000BFFEF74EF9001B022829D8D7F86D
:10496000980010F0020FF5D1E869E8B3B9683C4649
:104970000C2232EA01017BD00228206820F08070EE
:10498000206019D0E06820F00300E060E06820F4C7
:10499000881020F08070E060FEF72CF90546206852
:1049A00010F0007F20D000BFFEF724F9401B022842
:1049B00059D90320BDE8F883FEF71CF906462068A4
:1049C00010F0007F09D000BFFEF714F9801B022809
:1049D000EFD8206810F0007FF6D1D5E908016FF01C
:1049E0000F0202EB011100E076E00843298E520429
:1049F000490802EB4151AA6A41EA0221084395F8AD
:104A000034104FF07E42490802EB4161084395F8AB
:104A10002C1040EAC160E168054A11400843E0609B
:104A2000206807E00010024078000020007000407D
:104A30000C809F0140F080702060E06840F0807042
:104A4000E060FEF7D7F80546206810F0007F43D1FC
:104A5000FEF7D0F8401B0228ABD8206810F0007F8A
:104A6000F6D039E004E0206810F0007F9CD133E0FC
:104A7000012808BFBDE8F883E0682A6A00F0030156
:104A8000914226D1696A00F0F00209011039914281
:104A90001FD1AA6A00F4FE41B1EB022F19D195F89B
:104AA0002C2000F07841B1EBC26F12D1298E00F4B6
:104AB000C00249084905A1F50011914209D195F8B4
:104AC000341000F0C06049084906A1F1007181422C
:104AD00002D00120BDE8F8830020BDE8F88300285B
:104AE00004BF0120704770B50446406A00250028C5
:104AF0001CBF2561656104D0A56294F85D0058B9BA
:104B000005E06068B0F5827F18BFE561F4E784F8DE
:104B10005C50204600F068F8022084F85D002068B0
:104B2000016821F040010160E168B1F5E06F8CBFE0
:104B300000204FF48050B1F5706F1CBFB1F5E06FED
:104B4000A562A188228901F4827102F4044241EA3B
:104B50000201227C02F0020241EA0201227D02F0FF
:104B6000010241EA0201228B02F4007241EA0201D1
:104B7000227F02F0380241EA020194F8202002F07C
:104B8000800241EA0201228D02F4005241EA020150
:104B900022681160A1694FF0040202EA114194F801
:104BA000242000F4805002F0100241EA020194F83F
:104BB000342002F0080241EA0201A28902F4706284
:104BC00041EA020141EA0000216848602068C169A9
:104BD00021F40061C16125664FF0010084F85D0099
:104BE0004FF0000070BD000000B587B000210091BB
:104BF0000191029103910491026822480221A2F1DD
:104C00008043B3F5605323D0A2F18043B3F57053D2
:104C10001CBF07B000BD826D42F400428265826D08
:104C200002F400420592C26C42F00402C264C06CFD
:104C300000F0040005904FF4E050CDE9000106209B
:104C4000CDE9031069461048FDF7D8FE07B000BD56
:104C5000826D42F480428265826D02F48042059248
:104C6000C26C42F00202C264C06C00F00200059007
:104C70004FF42040CDE900010520CDE9031069463D
:104C80000248E1E700100240000800480004004824
:104C90002DE9F84F044690F85C0000261D46924628
:104CA0008B46012804BF0220BDE8F88F4FF00109B0
:104CB00084F85C90FDF79EFF074694F85D004FF086
:104CC0000008012818BF022640F0C480BBF1000F85
:104CD00018BFBAF1000F00F0BC804FF0030084F859
:104CE0005D00C4F86080C4F838B0A4F83CA0A4F813
:104CF0003EA0C4F84080A4F84480A4F84680C4F8DC
:104D00005080C4F84C80A068B0F5004F09D12068ED
:104D1000016821F0400101602068016841F4804190
:104D200001602068016811F0400F03D1016841F073
:104D300040010160E068B0F5E06F606831D900289B
:104D400018BFBAF1010F0BD1A06B21680088C860B1
:104D5000A06B00F10200A063E08FA0F10100E087EA
:104D6000E08F002861D02068816811F0020F09D01F
:104D7000A16B0988C160A06B801CA063E08F401EFE
:104D8000E0870AE0FDF736FFC01BA84203D3B5F168
:104D9000FF3F56D101E0002D53D0E08F0028E2D133
:104DA00043E0002818BFBAF1010F15D1E08F0128A8
:104DB000A06B08D921680088C860A06B801CA06324
:104DC000E08F801E07E0216800780873A06B401C0C
:104DD000A063E08F401EE087E08F30B320688168D9
:104DE00011F0020F14D0E18F0129A16B07D90988B6
:104DF000C160A06B801CA063E08F801E06E0097874
:104E00000173A06B401CA063E08F401EE08709E0A7
:104E1000FDF7F0FEC01BA84203D3B5F1FF3F10D150
:104E200000E075B1E08F0028D8D13A4629462046E7
:104E300002F04BF800281CBF20202066A06830B983
:104E400001E0032606E02068C16880680090206EBB
:104E500000B1012684F85D9084F85C803046BDE89E
:104E6000F88F0000411EB1F1807F24BF0120704700
:104E70004FF0E0204161054AF02182F8141D002125
:104E80008161072101610020704700000FE000E010
:104E9000704770477047000090F83C20012A04BF1B
:104EA0000220704770B4012280F83C20CA688B68E9
:104EB00022F440721A434B6822F480621A430B6852
:104EC00022F400621A430B6922F480521A434B69A0
:104ED00022F400521A430B6B22F480421A430B8BCC
:104EE00022F4702242EA0343DFF868C002681A4CD9
:104EF0001A4D62451CBFA242AA4204D1CE6923F0DA
:104F0000805343EA060362451CBFA242AA4218D15D
:104F10000E8D23F4700343EA06530E6A23F0807368
:104F200043EA06034E6A23F0007343EA0603624530
:104F30001CBFA242AA4204D1C96A23F0005343EA2B
:104F4000010353644FF0000180F83C1070BC084628
:104F500070470000002C0140003401400050014027
:104F6000704770477047000090F83C20012A04BF4A
:104F7000022070472DE9F0014FF0010C80F83CC091
:104F8000022280F83D20026853689468224D234E27
:104F9000234FAA421CBFB242BA4205D1D1F80480C5
:104FA00023F4700348EA030323F07003D1F8008070
:104FB00023F0007348EA030353600268AA4218BF53
:104FC000B2F1804F17D0A2F18043B3F580631CBFCC
:104FD000A2F18043B3F500630DD0A2F18043B3F595
:104FE000406318BFB24206D0A2F18043B3F5A033AC
:104FF00018BFBA4205D1896824F0800341EA030151
:10500000916080F83DC04FF0000180F83C10BDE891
:10501000F001084670470000002C014000340140B8
:10502000005001407047002804BF0120704710B5B0
:10503000044690F83D0028B9002084F83C00204642
:1050400000F022F8022084F83D00211D206802F0C3
:10505000D1FA012084F8480084F83E0084F83F002B
:1050600084F8400084F8410084F8420084F843004A
:1050700084F8440084F8450084F8460084F847002A
:1050800084F83D00002010BD08B501681248A1F168
:105090008042B2F5963215D0B1F1804F18BF08BDED
:1050A000816D41F001018165806D002200F00100F9
:1050B000009002211C20FEF74BFDBDE808401C209B
:1050C000FEF736BD016E41F400610166006E00F42A
:1050D0000060009008BD00000010024090F83D10F4
:1050E00001291CBF01207047022180F83D10016892
:1050F000CA6842F00102CA600068A0F18041B1F5BF
:10510000963118BFB0F1804F23D0A0F18041B1F5A6
:1051100080611CBFA0F18041B1F5006119D0A0F100
:105120008041B1F540611CBFA0F18041B1F59A31D9
:105130000FD0A0F18041B1F5A0311CBFA0F180419A
:10514000B1F5A83105D0016841F0010101600020EE
:1051500070478168034A1140062918BFB1F5803FA6
:10516000F5D0F0E70700010090F83C200023012A69
:105170000DBF02204FF0010C80F83CC0704770B4A6
:10518000022280F83D200268946824F0770424F419
:10519000441424F47F4494600A68B2F5005F3BD065
:1051A00015DC402A7DD008DC002A18BF102A16D052
:1051B000202A18BF302A12D097E0502A3DD0602A0A
:1051C00057D0702A16D0B2F5805F51D08DE012F022
:1051D0000F0F67D11111A1F58031072962D801683D
:1051E0008C6824F0700424F44014224342F0070237
:1051F0008A607BE002684D688C68C968966845EAF9
:10520000012126F47F462143314391600268916871
:1052100041F07701916069E002684D688C68C96867
:10522000966845EA012126F47F4621433143916087
:1052300001688A6842F4804219E00268CD684C68CF
:10524000116A166A26F001061662966921F00A01B3
:1052500026F0F00646EA05152143956111620168C2
:105260008A6822F0700222F4401242F057028A60EB
:105270003CE00268CD684C68116A21F010011162AF
:105280009169166A21F4704141EA053126F0A005C2
:1052900045EA04149161146201688A6822F0700280
:1052A00001E006E021E022F4401242F067028A6049
:1052B0001CE002684C68C968156A166A26F0010687
:1052C0001662966925F00A0526F0F00646EA0111F5
:1052D0002C439161146201688A6822F0700222F402
:1052E000401242F047028A6000E0012380F83DC08E
:1052F000002180F83C1070BC18467047704770B5AC
:105300000446006801694FF0000511F0020F1CBF50
:10531000C16811F0020F13D06FF00201016101208A
:1053200020772068806910F0030F204602D0FFF735
:10533000E5FF04E000F0E4F8204600F09BFA257752
:105340002068016911F0040F1CBFC16811F0040F3F
:1053500013D06FF00401016102202077206880697A
:1053600010F4407F204602D0FFF7C8FF04E000F0B1
:10537000C7F8204600F07EFA25772068016911F011
:10538000080F1CBFC16811F0080F13D06FF008019F
:105390000161042020772068C06910F0030F2046C7
:1053A00002D0FFF7ABFF04E000F0AAF8204600F0BF
:1053B00061FA25772068016911F0100F1CBFC168E0
:1053C00011F0100F13D06FF0100101610820207749
:1053D0002068C06910F4407F204602D0FFF78EFF9E
:1053E00004E000F08DF8204600F044FA25772068AC
:1053F000016911F0010F1CBFC16811F0010F05D048
:105400006FF001010161204600F0CEFA20680169C9
:1054100011F0800F1CBFC16811F0800F05D06FF034
:10542000800101612046FFF734FD2068016911F415
:10543000807F1CBFC16811F0800F05D06FF48071B0
:1054400001612046FFF724FD2068016911F0400F3B
:105450001CBFC16811F0400F05D06FF04001016121
:10546000204600F0A2FA2068016911F0200F1CBF4D
:10547000C16811F0200F05D06FF0200101612046B6
:10548000FFF708FD2068016911F4801F1CBFC16887
:1054900011F4801F05D06FF4801101612046FFF7E1
:1054A00060FD2068016911F4001F1CBFC16811F480
:1054B000001F05D06FF4001101612046FFF750FD79
:1054C0002068016911F4800F1CBFC16811F4800FBE
:1054D00005D06FF4800101612046FFF743FD20688D
:1054E000016911F4000F1ABFC16811F4000F70BDFB
:1054F0006FF4000101612046BDE87040FFF792BDE6
:10550000704700002DE9F05F044690F83C0000264B
:105510000D4601280DBF0220012084F83C00BDE8A3
:10552000F09FB54FDFF8D482DFF8D492B549B64B7F
:10553000DFF8D8C20C2A7DD005DC8AB1042A22D03B
:10554000082A35D005E0102A00F0D580142A00F092
:1055500012810126002084F83C003046BDE8F09F0F
:105560002946206802F0B4F82068816941F00801FA
:1055700081612068816921F004018161206881696D
:105580002A69114312E02946206802F0FBF82068DE
:10559000816941F4006181612068816921F4806141
:1055A0008161206881692A6941EA02218161D1E72C
:1055B0002068026A22F480720262026AD0F804A0B3
:1055C000D0F81CB0D5F800E02BF0730B2BF4803B27
:1055D0004EEA0B0BD5F808E022F4007242EA0E22E4
:1055E00088421CBF9842604507D1D5F80CE022F4F0
:1055F000006242EA0E2222F48062884218BF98427A
:1056000007D0B84218BF404503D0484518BF604591
:1056100007D16B692AF4405141EA0311AB6941EAB1
:10562000031AC0F804A0C0F81CB06968C163026224
:10563000206800E00EE0C16941F00801C161206806
:10564000C16921F00401C1612068C1692A6941EA88
:1056500002014EE02068026A22F480520262026A6D
:10566000D0F804A0D0F81CB0D5F800E02BF4E64B3D
:105670002BF0807B4BEA0E2BD5F808E022F4005289
:1056800042EA0E3288421CBF9842604507D1D5F8E5
:105690000CE022F4004242EA0E3222F480428842B8
:1056A00018BF984207D0B84218BF404503D04845BC
:1056B00018BF604507D16B692AF4404141EA831164
:1056C000AB6941EA831AC0F804A0C0F81CB069684D
:1056D000016402622068C16941F40061C16120680F
:1056E000C16921F48061C1612068C1692A6941EA08
:1056F0000221C1612EE72068026A22F48032026230
:10570000D0F820A04268D0F850B0D5F800E02BF0D7
:10571000700B2BF4803B4EEA0B0BB5F808E02AF433
:10572000003A4AEA0E4A884218BF984207D0B84267
:1057300018BF404503D0484518BF604504D122F446
:1057400080316A6941EA02224260C0F850B069685B
:105750008164C0F820A02068016D41F00801016556
:105760002068016D21F0040101652068016D2A693E
:1057700041EA02013EE02068026A22F480120262DD
:10578000D0F820A04268D0F850B0D5F800E02BF453
:10579000E04B2BF0807B4BEA0E2BB5F808E02AF4A7
:1057A000001A4AEA0E5A884218BF984207D0B842F7
:1057B00018BF404503D0484518BF604504D122F4C6
:1057C00080216A6941EA82224260C0F850B069686B
:1057D000C164C0F820A02068016D41F4006101653A
:1057E0002068016D21F4806101652068016D2A69DE
:1057F00041EA02210165ADE600400140004401405C
:1058000000480140002C014000340140005001409C
:10581000002804BF0120704710B5044690F83D00F1
:1058200028B9002084F83C00204600F022F802202D
:1058300084F83D00211D206801F0DCFE012084F881
:10584000480084F83E0084F83F0084F8400084F863
:10585000410084F8420084F8430084F8440084F84E
:10586000450084F8460084F8470084F83D00002095
:1058700010BD704770470000022381B1042916D083
:1058800008291CD00C2922D0102928D090F84320B8
:10589000012A08BF80F8433028D00120704790F8D3
:1058A0003E20012A08BF80F83E30F6D11EE090F875
:1058B0003F20012A08BF80F83F30EED116E090F873
:1058C0004020012A08BF80F84030E6D10EE090F871
:1058D0004120012A08BF80F84130DED106E090F86F
:1058E0004220012A08BF80F84230D6D130B401F0FE
:1058F0001F03026801219940136A8B431362136AE4
:1059000019431162234A0168234BDFF890C0244CED
:10591000914218BF99420DD061451CBFA1F180454D
:10592000B5F5A23506D0A1F18045B5F5A43518BF6F
:10593000A14203D14D6C45F400454D64006890428E
:1059400018BFB0F1804F14D0A0F18041B1F5806153
:105950001CBFA0F18041B1F500610AD0A0F18041E7
:10596000B1F5406118BF984203D0604518BFA0420E
:1059700008D181680B4A01EA0201062918BFB1F576
:10598000803F03D0016841F00101016030BC4FF05D
:1059900000007047002C01400034014000400140ED
:1059A00000500140070001007047704790F88010D8
:1059B000012904BF02207047012180F880102421B2
:1059C000C0F8841001680A680B6823F001030B60BB
:1059D00022F0005100224266036819602021C0F8BD
:1059E000841080F8802010467047000090F88020D6
:1059F000012A04BF0220704730B4012280F88020C1
:105A00002423C0F884300368D3F800C01C6824F055
:105A100001041C6003689C6824F060642143996061
:105A2000416E002908BFA0F86A2014D0026891686E
:105A30009268C1F342610F4B520F9C5CE50003F189
:105A40000804A25CB5FBF2F5A0F86A505A5C615CF0
:105A5000D200B2FBF1F2A0F868200168C1F800C0E2
:105A60002021C0F88410002180F8801030BC084646
:105A70007047000098A2000890F88020012A04BF17
:105A80000220704730B4012280F880202423C0F81F
:105A900084300368D3F800C01C6824F001041C6043
:105AA00003689C6824F0604421439960416E00299A
:105AB00008BFA0F86A2014D0026891689268C1F308
:105AC00042610F4B520F9C5CE50003F10804A25C9D
:105AD000B5FBF2F5A0F86A505A5C615CD200B2FBEB
